:100000000C9434000C941C010C9446000C94460093
:100010000C9446000C9446000C9446000C94460048
:100020000C9446000C9446000C9446000C94460038
:100030000C9446000C9446000C9446000C94460028
:100040000C9446000C9446000C9446000C94460018
:100050000C9446000C9446000C9446000C94460008
:100060000C9446000C94460011241FBECFEFD8E03C
:10007000DEBFCDBF21E0A0E0B1E001C01D92A930FC
:10008000B207E1F70E9436010C943F010C94000086
:100090009093C5008093C400E1ECF0E088E1808398
:1000A0008EE08093C2008081806880830895909163
:1000B000C00095FFFCCF8093C6000895CF92DF92D9
:1000C000EF92FF920F931F93CF93DF937C01162F34
:1000D000042FCFE0D0E0CC24C394D12CC6010C2E49
:1000E00002C0880F991F0A94E2F78E219F21892B65
:1000F000D1F081E30E945700219780F7002319F087
:1001000080E20E945700112381F08AE00E9457008C
:100110008DE0DF91CF911F910F91FF90EF90DF90D5
:10012000CF900C94570080E3E5CFDF91CF911F91E2
:100130000F91FF90EF90DF90CF9008950F931F9352
:10014000CF93DF93C7E0D0E0082F10E0C8010C2E5A
:1001500002C0959587950A94E2F780FF0AC081E373
:100160000E945700219790F7DF91CF911F910F9137
:10017000089580E3F5CFFC019191992339F08091A6
:10018000C00085FFFCCF9093C600F6CF0895809104
:10019000C00087FFFCCF8091C6000895E9E6F0E03B
:1001A000808182608083808188608083E89A8FEF7D
:1001B00084B91AB881E0809308010895282F21702E
:1001C000982F969537E0992339F0220F892F817067
:1001D000282B31509695F7CF822F01C0880F3A9582
:1001E000EAF70895C1E0809108018111FCCF809168
:1001F000050190910701911109C00E94DE008093D2
:100200000401C0930701C0930801EDCF0E94DE00F6
:1002100082958F7090910401892B80930401109234
:100220000701C09308010E949E008AE00E945700C7
:100230008DE00E945700D7CF1F920F920FB60F92FA
:1002400011248F939F9389B190E09595879595950B
:1002500087959595879580930501109208019F9148
:100260008F910F900FBE0F901F90189588E090E02F
:100270000E94480078940E94CE000E94F200F894F8
:02028000FFCFAE
:00000001FF
