:100000000C9434000C94E6000C9446000C944600CA
:100010000C9446000C9446000C9446000C94460048
:100020000C9446000C9446000C9446000C94460038
:100030000C9446000C9446000C9446000C94460028
:100040000C9446000C9446000C9446000C94460018
:100050000C9446000C9446000C9446000C94460008
:100060000C9446000C94460011241FBECFEFD8E03C
:10007000DEBFCDBF21E0A0E0B1E001C01D92A23003
:10008000B207E1F70E94F8000C9411010C940000F3
:100090009093C5008093C400E1ECF0E088E1808398
:1000A0008EE08093C2008081806880830895909163
:1000B000C00095FFFCCF8093C6000895CF92DF92D9
:1000C000EF92FF920F931F93CF93DF937C01162F34
:1000D000042FCFE0D0E0CC24C394D12CC6010C2E49
:1000E00002C0880F991F0A94E2F78E219F21892B65
:1000F000D1F081E30E945700219780F7002319F087
:1001000080E20E945700112381F08AE00E9457008C
:100110008DE0DF91CF911F910F91FF90EF90DF90D5
:10012000CF900C94570080E3E5CFDF91CF911F91E2
:100130000F91FF90EF90DF90CF9008950F931F9352
:10014000CF93DF93C7E0D0E0082F10E0C8010C2E5A
:1001500002C0959587950A94E2F780FF0AC081E373
:100160000E945700219790F7DF91CF911F910F9137
:10017000089580E3F5CFFC019191992339F08091A6
:10018000C00085FFFCCF9093C600F6CF0895809104
:10019000C00087FFFCCF8091C60008955298539805
:1001A0008BB18C608BB9549A559A569A5C985D982D
:1001B0005E98E9E6F0E080818260808380818860DB
:1001C0008083E89A81E08093010108951F920F9245
:1001D0000FB60F9211248F9389B18F708093000115
:1001E000109201018F910F900FBE0F901F901895E4
:1001F00088E090E00E94480078940E94CE00C1E020
:10020000809101018111FCCF809100010E949E002C
:100210008AE00E9457008DE00E945700C0930101C0
:06022000EFCFF894FFCFC0
:00000001FF
