:100000000C9434000C94C5010C94DF010C94460050
:100010000C9446000C9446000C9446000C94460048
:100020000C9446000C9446000C9446000C94460038
:100030000C9446000C9446000C9446000C94460028
:100040000C9446000C9446000C9477010C944600E6
:100050000C9446000C9446000C9446000C94460008
:100060000C9446000C94460011241FBECFEFD8E03C
:10007000DEBFCDBF21E0A0E0B1E001C01D92AE30F7
:10008000B207E1F70E9403020C9422020C940000D4
:100090009093C5008093C400E1ECF0E088E1808398
:1000A0008EE08093C2008081806880830895909163
:1000B000C00095FFFCCF8093C6000895CF92DF92D9
:1000C000EF92FF920F931F93CF93DF937C01162F34
:1000D000042FCFE0D0E0CC24C394D12CC6010C2E49
:1000E00002C0880F991F0A94E2F78E219F21892B65
:1000F000D1F081E30E945700219780F7002319F087
:1001000080E20E945700112381F08AE00E9457008C
:100110008DE0DF91CF911F910F91FF90EF90DF90D5
:10012000CF900C94570080E3E5CFDF91CF911F91E2
:100130000F91FF90EF90DF90CF9008950F931F9352
:10014000CF93DF93C7E0D0E0082F10E0C8010C2E5A
:1001500002C0959587950A94E2F780FF0AC081E373
:100160000E945700219790F7DF91CF911F910F9137
:10017000089580E3F5CFFC019191992339F08091A6
:10018000C00085FFFCCF9093C600F6CF0895809104
:10019000C00087FFFCCF8091C60008955298539805
:1001A0008BB18C608BB9549A559A569A5C985D982D
:1001B0005E98E9E6F0E080818260808380818860DB
:1001C00080838DB383608DBB17BC84B5806884BD8C
:1001D00084B5836084BD85B5826085BD81E08093F0
:1001E0000D0108952091090130910A0180910701C4
:1001F0009091080128173907C0F481E08093050128
:1002000080910501811114C05C985D9A20910901CB
:1002100030910A0180910701909108012817390750
:1002200051F08091060187BD089510920501E8CF35
:100230005C9A5D98EBCF17BC5C985D980895C1E01F
:1002400060910101709100018091090190910A0172
:1002500020910201409107015091080130910D0158
:10026000311106C06623E1F1019620E0C0930D0133
:1002700030910D01313091F72093020190930A01E2
:10028000809309019C01241B350B37FF03C0319576
:1002900021953109309304012093030120910B0132
:1002A00030910C012817390791F041E061E00E947C
:1002B0005E0041E061E080910701909108010E9499
:1002C0005E008AE00E9457008DE00E9457008091F6
:1002D000090190910A0190930C0180930B01B0CF1A
:1002E000772321F2009709F0019721E0BFCF1F92F9
:1002F0000F920FB60F9211242F933F934F935F935A
:100300006F937F938F939F93AF93BF93EF93FF93DD
:100310008091C00087FFFCCF8091C600813361F4DB
:1003200080910701909108018330910528F0029790
:1003300090930801809307018091C600823349F4AD
:100340008091070190910801029690930801809393
:10035000070141E061E08091090190910A010E944A
:100360005E008DE00E945700FF91EF91BF91AF9129
:100370009F918F917F916F915F914F913F912F91BD
:100380000F900FBE0F901F9018951F920F920FB6EF
:100390000F9211248F9389B182FB882780F9809373
:1003A000010189B183FB882780F9809300011092B5
:1003B0000D018F910F900FBE0F901F9018951F92F7
:1003C0000F920FB60F9211242F933F934F935F9389
:1003D0006F937F938F939F93AF93BF93EF93FF930D
:1003E0000E94C501FF91EF91BF91AF919F918F91B5
:1003F0007F916F915F914F913F912F910F900FBE21
:100400000F901F90189588E090E00E94480010928D
:100410000D018AEF8093060181E0809305018AE057
:1004200090E090930A0180930901109204011092C8
:100430000301909308018093070178940E94CE00F5
:080440000E941F01F894FFCF98
:00000001FF
